:10036E001204C753B27C53B17C43B24053B1BF5356
:10037E00921F53911FD2B67F647E001204B3E4FF26
:10038E00FE12041A8F1DEF25E024B2F582E434022A
:10039E00F583E493FE740193FF1203127F0A7E002D
:0803AE001204B31200AB80F44D
:08050D007F0C7EA9DEFEDFFC7D
:0105150022C3
:1004B300AD07AC06ED1DAE0470011C4E60051205C0
:0404C3000D80F12295
:1002B20016E916D516C116AD169916851671165D74
:1002C20016651678168B169E16B116C416D716EA40
:1002D200164916351621160D16FD17111725173951
:1002E200166C1680169416A816BC16D016E416F8CC
:1002F200161A163F1664168916AE16D316F8171D6F
:1003020014F21517153C1561158615AB15D015F5A8
:0304E800011D00F3
:0C04F500C29500A203929700D29500224D
:0803B6008F168E158D148C13B7
:1003BE00E4FBEBC395175029E5165401FFE4FEFD4F
:1003CE00FCEF24FF92031204F5AF16AE15AD14AC7C
:1003DE001378011200858F168E158D148C130B80D9
:0103EE00D13D
:0103EF0022EB
:10046800C296E4FCFDFE7517041203B6D20312040B
:10047800F5AF12AE11AD10AC0F7517141203B6D24A
:0604880096C295C2972206
:10031200EF2421FFEE34FEC313FEEF13FDAC06788B
:1003220005CEC313CE13D8F9FFED541FFB7A00E4B8
:100332008F0D8E0CF50BF50AAD0BAC0A7807120087
:10034200988F0D8E0C8D0B8C0AAF03E50D4FF50DBA
:10035200E50CF50CE50BF50BE50AF50A850D1285A2
:0C0362000C11850B10F50F7F01020468E0
:10024F00E4F5091204DAE4F508E50825E024B2F52F
:10025F0082E43402F583E493FE740193FF120312D8
:10026F007F0F7E001204B31204DAEFD39509400515
:10027F008F0985081D0508E508C3943040CBE4FFBE
:10028F00FE12048EAD1DE4FFFE120441E51D25E0B4
:10029F0024B2F582E43402F583E493FE740193FFF4
:0302AF0002031235
:0E04DA00759D1075BCECE5BC30E4FBAFBD2297
:0805160020202020000D0A0046
:1004C700759850438E01438E0475D7E675D6FF4362
:0304D7008E102262
:04050100842430FF1F
:080505008F993099FDC2992283
:0A03F000FF1205057BFF7A05791660
:0603FA008B188A19891A14
:10040000E4FEAB18AA19A91A8E82758300120003A4
:09041000FF60061205050E80E9EB
:0104190022C0
:1001DE008F1B8D1CEF2401FFE433FE7C007D0A1281
:1001EE000030EF2430FF120505E51B2401FFE43338
:1001FE00FE7C007D0A120030ED24301203F0E51B68
:10020E00131313541F2441FF120505E51B54072435
:10021E00311203F0E51C75F064120501E51C75F052
:10022E006484E5F075F00A120501E51C75F00A8488
:10023E00E5F02430FF1205057BFF7A05791B0203DA
:01024E00FAB5
:10048E008FC48EC375C70143C78275C50375C65A1F
:10049E0075C6A50000000075C4FF75C3FFE4F5C75F
:0504AE00F5C5F5C622B2
:10041A008FC48EC375C70143C78275C50175C65A95
:10042A0075C6A50000000075C4FF75C3FFE4F5C7D3
:07043A00F5C5F5C6AFC222B3
:100441008DC28FC48EC375C70143C78275C502753E
:10045100C65A75C6A50000000075C4FF75C3FFE448
:07046100F5C7F5C5F5C62241
:0904EB00C100011E00C181C182A3
:1000AB0030B00320B10E051EE51EB4C80AE4F51EE0
:1000BB00D2008003E4F51E200074D2B730B0362096
:1000CB000133E51DC3942F5004051D8003E4F51D7A
:1000DB00E51D25E024B2F582E43402F583E493FEBA
:1000EB00740193FF120312E4FFFE12048EAD1DE4A4
:1000FB00FFFE12044130B136200233E51DD39400CC
:10010B004004151D8003751D2FE51D25E024B2F558
:10011B0082E43402F583E493FE740193FF1203121D
:10012B00E4FFFE12048EAD1DE4FFFE12044130000D
:10013B000DC2B730B00830B10512024FC200A2B0E9
:06014B009201A2B1920234
:01015100228B
:03000000020152A8
:0C015200787FE4F6D8FD75812002019949
:10000300BB010CE58229F582E5833AF583E02250B2
:1000130006E92582F8E622BBFE06E92582F8E222FC
:0D002300E58229F582E5833AF583E4932216
:10003000BC000BBE0029EF8DF084FFADF022E4CCB4
:10004000F875F008EF2FFFEE33FEEC33FCEE9DEC7D
:10005000984005FCEE9DFE0FD5F0E9E4CEFD22EDC3
:10006000F8F5F0EE8420D21CFEADF075F008EF2F0D
:10007000FFED33FD4007985006D5F0F222C398FDFE
:050080000FD5F0EA229B
:10008500E8600FECC313FCED13FDEE13FEEF13FF59
:03009500D8F1227D
:10009800E8600FEFC333FFEE33FEED33FDEC33FCC6
:0300A800D8F1226A
:10015E0002036EE493A3F8E493A34003F68001F246
:10016E0008DFF48029E493A3F85407240CC8C333A2
:10017E00C4540F4420C8834004F456800146F6DF71
:10018E00E4800B01020408102040809004E8E47E15
:10019E00019360BCA3FF543F30E509541FFEE49366
:1001AE00A360010ECF54C025E060A840B8E493A32D
:1001BE00FAE493A3F8E493A3C8C582C8CAC583CA58
:1001CE00F0A3C8C582C8CAC583CADFE9DEE780BE10
:0104F4000007
:00000001FF
